:100000000C944E000C946D000C946D000C946D00DB
:100010000C946D000C946D000C946D000C946D00AC
:100020000C946D000C946D000C946D000C946D009C
:100030000C946D000C946D000C946D000C946D008C
:100040000C946D000C946D000C946D000C946D007C
:100050000C946D000C946D000C946D000C946D006C
:100060000C946D000C946D000C946D000C946D005C
:100070000C946D000C946D000C946D000C946D004C
:100080000C946D000C946D000C946D008C00950028
:10009000BA00BD00C400D500DC00ED0011241FBE75
:1000A000CFEFD0E4DEBFCDBF11E0A0E0B1E0E0E6ED
:1000B000F2E000E00BBF02C007900D92AE30B10736
:1000C000D9F711E0AEE0B1E001C01D92A031B10757
:1000D000E1F70E9417010C942E010C940000CF93BD
:1000E000C82F8A3019F48DE00E946F009091C000F3
:1000F00095FFFCCFC093C60080E090E0CF910895BB
:10010000E0910E01F0910F01E830F10508F06CC0AC
:10011000EA5BFF4F0C94250187E088B981E090E00D
:1001200090930F0180930E0165C080B1813039F446
:1001300083E090E090930F0180930E015BC080B14B
:10014000823039F485E090E090930F0180930E01A6
:1001500051C080B1833039F482E090E090930F0178
:1001600080930E0147C081E090E090930F0180934F
:100170000E0140C080B1811180B184E090E0909385
:100180000F0180930E0136C080B1813039F484E0D4
:1001900090E090930F0180930E012CC081E090E0DD
:1001A00090930F0180930E0125C086E090E090931C
:1001B0000F0180930E011EC080B1823039F486E0B9
:1001C00090E090930F0180930E0114C081E090E0C5
:1001D00090930F0180930E010DC081E090E0909309
:1001E0000F0180930E0106C081E090E090930F0113
:1001F00080930E0180910E0190910F018530910541
:1002000061F08730910581F0039781F488B18930DE
:1002100068F488B18F5F88B9089588B1882331F078
:1002200088B1815088B9089587E088B9089511B8D8
:100230008FEF82B987B918B887E088B910920F019B
:1002400010920E010E948000FDCFEE0FFF1F0024D0
:10025000001C0BBE0790F691E02D0994F894FFCF97
:0E02600000000002000000006F00000000001F
:00000001FF
