:100000000C944E000C946D000C946D000C946D00DB
:100010000C946D000C946D000C946D000C946D00AC
:100020000C946D000C946D000C946D000C946D009C
:100030000C946D000C946D000C946D000C946D008C
:100040000C946D000C946D000C946D000C946D007C
:100050000C946D000C946D000C946D000C946D006C
:100060000C946D000C946D000C946D000C946D005C
:100070000C946D000C946D000C946D000C946D004C
:100080000C946D000C946D000C946D008C00950028
:10009000C900D200D900EF00F6000C0111241FBEE8
:1000A000CFEFD0E4DEBFCDBF11E0A0E0B1E0EAE9E0
:1000B000F2E000E00BBF02C007900D92AE30B10736
:1000C000D9F711E0AEE0B1E001C01D92A031B10757
:1000D000E1F70E9436010C944B010C940000CF9381
:1000E000C82F8A3019F48DE00E946F009091C000F3
:1000F00095FFFCCFC093C60080E090E0CF910895BB
:10010000E0910E01F0910F01E830F10508F08BC08D
:10011000EA5BFF4F0C94420187E088B981E090E0F0
:1001200090930F0180930E0184C080B190E0809580
:10013000909583709927019739F483E090E090932C
:100140000F0180930E0175C080B190E0809590956D
:1001500083709927029739F485E090E090930F011E
:1001600080930E0166C080B190E080959095837079
:100170009927039739F482E090E090930F018093E0
:100180000E0157C081E090E090930F0180930E0123
:1001900050C080B190E08095909583709927892B0D
:1001A00009F080B184E090E090930F0180930E01FC
:1001B00040C080B190E08095909583709927019719
:1001C00039F484E090E090930F0180930E0131C0E8
:1001D00081E090E090930F0180930E012AC086E0A9
:1001E00090E090930F0180930E0123C080B190E0C6
:1001F0008095909583709927029739F486E090E076
:1002000090930F0180930E0114C081E090E09093D1
:100210000F0180930E010DC081E090E090930F01DB
:1002200080930E0106C081E090E090930F018093CF
:100230000E0180910E0190910F018530910561F0C2
:100240008730910581F0039781F488B1893068F493
:1002500088B18F5F88B9089588B1882331F088B15B
:10026000815088B9089587E088B9089511B88FEF53
:1002700082B987B918B810920F0110920E010E942E
:100280008000FDCFEE0FFF1F0024001C0BBE079067
:0A029000F691E02D0994F894FFCFD9
:0E029A0000000002000000006F0000000000E5
:00000001FF
